:020000040800F2
:10000000000001204D1C0008351A00083B1A0008AA
:10001000411A0008471A00084D1A000800000000A5
:10002000000000000000000000000000531A00085B
:10003000611A0008000000006F1A00087D1A00080D
:100040009D1C00089D1C00089D1C00089D1C0008AC
:100050009D1C00089D1C00089D1C00089D1C00089C
:100060009D1C00089D1C00089D1C00089D1C00088C
:100070009D1C00089D1C00089D1C00089D1C00087C
:100080009D1C00089D1C00089D1C0008000000002D
:100090000000000000000000000000009D1C00089F
:1000A0009D1C00089D1C00089D1C00089D1C00084C
:1000B0009D1C00089D1C00089D1C00089D1C00083C
:1000C0009D1C00089D1C00089D1C00089D1C00082C
:1000D0009D1C0008891A00089D1C000800000000F3
:1000E0009D1C00089D1C00089D1C000800000000CD
:1000F0000000000000000000000000009D1C00083F
:10010000000000009D1C00089D1C00089D1C0008AC
:1001100000000000000000000000000000000000DF
:100120009D1C00089D1C00089D1C00089D1C0008CB
:100130009D1C0008000000000000000000000000FE
:100140000000000000000000000000009D1C0008EE
:100150009D1C00089D1C00089D1C00089D1C00089B
:100160009D1C00089D1C000800000000000000000D
:10017000000000000000000000000000000000007F
:10018000000000009D1C00080000000000000000AE
:040190009D1C0008AA
:1001A00010B5054C237833B9044B13B10448AFF3B1
:1001B00000800123237010BDE0010020000000003A
:1001C0005090000808B5034B1BB103490348AFF337
:1001D000008008BD00000000E401002050900008ED
:1001E000034613F8012B002AFBD1181A0138704777
:1001F00001F0FF01102A2BDB10F0070F08D010F8D8
:10020000013B013A8B422DD010F0070F42B3F6D1DB
:10021000F0B441EA012141EA014122F007047FF0F4
:1002200000070023F0E80256083C85EA010586EA4B
:10023000010685FA47F5A3FA87F586FA47F6A5FA87
:1002400087F68EB9EED1F0BC01F0FF0102F0070293
:1002500032B110F8013B013A83EA010313B1F8D13E
:100260000020704701387047002D06BF354603381F
:10027000073815F0010F07D1013015F4807F02BF58
:10028000013015F4C03F0130F0BC0138704700BFA9
:1002900081F0004102E000BF83F0004330B54FEA37
:1002A00041044FEA430594EA050F08BF90EA020FA4
:1002B0001FBF54EA000C55EA020C7FEA645C7FEA37
:1002C000655C00F0E2804FEA5454D4EB5555B8BF5A
:1002D0006D420CDD2C4480EA020281EA030382EACB
:1002E000000083EA010180EA020281EA0303362D5D
:1002F00088BF30BD11F0004F4FEA01314FF4801C30
:100300004CEA113102D0404261EB410113F0004F41
:100310004FEA03334CEA133302D0524263EB4303F8
:1003200094EA050F00F0A780A4F10104D5F1200E96
:100330000DDB02FA0EFC22FA05F2801841F10001F1
:1003400003FA0EF2801843FA05F359410EE0A5F1C5
:1003500020050EF1200E012A03FA0EFC28BF4CF0F6
:10036000020C43FA05F3C01851EBE37101F00045AC
:1003700007D54FF0000EDCF1000C7EEB00006EEBB9
:100380000101B1F5801F1BD3B1F5001F0CD3490843
:100390005FEA30004FEA3C0C04F101044FEA44529A
:1003A00012F5800F80F09A80BCF1004F08BF5FEA21
:1003B000500C50F1000041EB045141EA050130BD01
:1003C0005FEA4C0C404141EB0101013C28BFB1F513
:1003D000801FE9D291F0000F04BF01460020B1FA5E
:1003E00081F308BF2033A3F10B03B3F120020CDA31
:1003F0000C3208DD02F1140CC2F10C0201FA0CF00F
:1004000021FA02F10CE002F11402D8BFC2F1200C73
:1004100001FA02F120FA0CFCDCBF41EA0C01904029
:10042000E41AA2BF01EB0451294330BD6FEA040472
:100430001F3C1CDA0C340EDC04F11404C4F120025D
:1004400020FA04F001FA02F340EA030021FA04F36F
:1004500045EA030130BDC4F10C04C4F1200220FAC6
:1004600002F001FA04F340EA0300294630BD21FA04
:1004700004F0294630BD94F0000F83F4801306BFCA
:1004800081F480110134013D4EE77FEA645C18BFBE
:100490007FEA655C29D094EA050F08BF90EA020F55
:1004A00005D054EA000C04BF1946104630BD91EA4D
:1004B000030F1EBF0021002030BD5FEA545C05D150
:1004C0004000494128BF41F0004130BD14F580048F
:1004D0003CBF01F5801130BD01F0004545F0FE4103
:1004E00041F470014FF0000030BD7FEA645C1ABF38
:1004F000194610467FEA655C1CBF0B46024650EA6F
:10050000013406BF52EA033591EA030F41F400219A
:1005100030BD00BF90F0000F04BF0021704730B520
:100520004FF4806404F132044FF000054FF00001F5
:1005300050E700BF90F0000F04BF0021704730B5B6
:100540004FF4806404F1320410F0004548BF40428B
:100550004FF000013EE700BF42004FEAE2014FEAE0
:1005600031014FEA02701FBF12F07F4393F07F4FBB
:1005700081F06051704732F07F4208BF704793F0BE
:100580007F4F04BF41F40021704730B54FF46074D1
:1005900001F0004521F000411CE700BF50EA0102D4
:1005A00008BF704730B54FF000050AE050EA01027D
:1005B00008BF704730B511F0004502D5404261EBED
:1005C00041014FF4806404F132045FEA915C3FF42E
:1005D000D8AE4FF003025FEADC0C18BF03325FEACB
:1005E000DC0C18BF033202EBDC02C2F1200300FA7C
:1005F00003FC20FA02F001FA03FE40EA0E0021FAA1
:1006000002F11444BDE600BF70B54FF0FF0C4CF48E
:10061000E06C1CEA11541DBF1CEA135594EA0C0F40
:1006200095EA0C0F00F0DEF82C4481EA030621EA7B
:100630004C5123EA4C5350EA013518BF52EA0335B6
:1006400041F4801143F4801338D0A0FB02CE4FF068
:100650000005E1FB02E506F00042E0FB03E54FF098
:100660000006E1FB03569CF0000F18BF4EF0010E90
:10067000A4F1FF04B6F5007F64F5407404D25FEA8C
:100680004E0E6D4146EB060642EAC62141EA55513F
:100690004FEAC52040EA5E504FEACE2EB4F1FD0C81
:1006A00088BFBCF5E06F1ED8BEF1004F08BF5FEAFF
:1006B000500E50F1000041EB045170BD06F00046B1
:1006C00046EA010140EA020081EA0301B4EB5C045E
:1006D000C2BFD4EB0C0541EA045170BD41F4801156
:1006E0004FF0000E013C00F3AB8014F1360FDEBF7B
:1006F000002001F0004170BDC4F10004203C35DA57
:100700000C341BDC04F11404C4F1200500FA05F3D9
:1007100020FA04F001FA05F240EA020001F000427A
:1007200021F0004110EBD37021FA04F642EB0601F0
:100730005EEA430E08BF20EAD37070BDC4F10C041A
:10074000C4F1200500FA04F320FA05F001FA04F2DE
:1007500040EA020001F0004110EBD37041F10001CA
:100760005EEA430E08BF20EAD37070BDC4F12005D5
:1007700000FA05F24EEA020E20FA04F301FA05F23D
:1007800043EA020321FA04F001F0004121FA04F2E5
:1007900020EA020000EBD3705EEA430E08BF20EAB5
:1007A000D37070BD94F0000F0FD101F000464000EF
:1007B00041EB010111F4801F08BF013CF7D041EA71
:1007C000060195F0000F18BF704703F00046520075
:1007D00043EB030313F4801F08BF013DF7D043EA46
:1007E0000603704794EA0C0F0CEA135518BF95EAFC
:1007F0000C0F0CD050EA410618BF52EA4306D1D183
:1008000081EA030101F000414FF0000070BD50EAA1
:10081000410606BF1046194652EA430619D094EA2B
:100820000C0F02D150EA013613D195EA0C0F05D115
:1008300052EA03361CBF104619460AD181EA030169
:1008400001F0004141F0FE4141F470014FF0000021
:1008500070BD41F0FE4141F4780170BD70B54FF0BC
:10086000FF0C4CF4E06C1CEA11541DBF1CEA13553C
:1008700094EA0C0F95EA0C0F00F0A7F8A4EB05041E
:1008800081EA030E52EA03354FEA013100F0888015
:100890004FEA03334FF0805545EA131343EA1263DE
:1008A0004FEA022245EA111545EA10654FEA002693
:1008B0000EF000419D4208BF964244F1FD0404F54C
:1008C000407402D25B084FEA3202B61A65EB0305A8
:1008D0005B084FEA32024FF480104FF4002CB6EB65
:1008E000020E75EB030E22BFB61A754640EA0C00E5
:1008F0005B084FEA3202B6EB020E75EB030E22BF25
:10090000B61A754640EA5C005B084FEA3202B6EB65
:10091000020E75EB030E22BFB61A754640EA9C0024
:100920005B084FEA3202B6EB020E75EB030E22BFF4
:10093000B61A754640EADC0055EA060E18D04FEAB2
:10094000051545EA16754FEA06164FEAC30343EA52
:1009500052734FEAC2025FEA1C1CC0D111F4801F1F
:100960000BD141EA00014FF000004FF0004CB6E718
:1009700011F4801F04BF01430020B4F1FD0C88BFB7
:10098000BCF5E06F3FF6AFAEB5EB030C04BFB6EBC2
:10099000020C5FEA500C50F1000041EB045170BDB5
:1009A0000EF0004E4EEA113114EB5C04C2BFD4EBE2
:1009B0000C0541EA045170BD41F480114FF0000E66
:1009C000013C90E645EA060E8DE60CEA135594EAE2
:1009D0000C0F08BF95EA0C0F3FF43BAF94EA0C0FE5
:1009E0000AD150EA01347FF434AF95EA0C0F7FF45A
:1009F00025AF104619462CE795EA0C0F06D152EAAE
:100A000003353FF4FDAE1046194622E750EA410691
:100A100018BF52EA43067FF4C5AE50EA41047FF4A2
:100A20000DAF52EA43057FF4EBAE12E74FF0FF3C07
:100A300006E000BF4FF0010C02E000BF4FF0010CD8
:100A40004DF804CD4FEA410C7FEA6C5C4FEA430C51
:100A500018BF7FEA6C5C1BD001B050EA410C0CBFA0
:100A600052EA430C91EA030F02BF90EA020F002002
:100A7000704710F1000F91EA030F58BF994208BF69
:100A800090422CBFD8176FEAE37040F00100704726
:100A90004FEA410C7FEA6C5C02D150EA013C07D17D
:100AA0004FEA430C7FEA6C5CD6D152EA033CD3D0C8
:100AB0005DF8040B704700BF8446104662468C46C2
:100AC0001946634600E000BF01B5FFF7B7FF0028F5
:100AD00048BF10F1000F01BD4DF808EDFFF7F4FF1E
:100AE0000CBF012000205DF808FB00BF4DF808EDA9
:100AF000FFF7EAFF34BF012000205DF808FB00BFCC
:100B00004DF808EDFFF7E0FF94BF012000205DF8ED
:100B100008FB00BF4DF808EDFFF7CEFF94BF0120A2
:100B200000205DF808FB00BF4DF808EDFFF7C4FF9B
:100B300034BF012000205DF808FB00BF4FEA410CE4
:100B40007FEA6C5C02D150EA013C0AD14FEA430CC7
:100B50007FEA6C5C02D152EA033C02D14FF0000004
:100B600070474FF0010070474FEA410212F5001242
:100B700015D211D56FF47873B3EB625212D94FEAE4
:100B8000C12343F0004343EA505311F0004F23FACE
:100B900002F018BF404270474FF00000704750EA23
:100BA000013005D111F0004008BF6FF000407047E0
:100BB0004FF00000704700BF4A0011D212F500123A
:100BC00011D20DD56FF47873B3EB62520ED44FEAA5
:100BD000C12343F0004343EA505323FA02F0704725
:100BE0004FF00000704750EA013002D14FF0FF3063
:100BF00070474FF0000070474FEA4102B2F1E04306
:100C000024BFB3F5001CDCF1FE5C0DD901F0004CF3
:100C10004FEAC0024CEA5070B2F1004F40EB830043
:100C200008BF20F00100704711F0804F21D113F16F
:100C30003872BCBF01F00040704741F480114FEAA8
:100C40005252C2F11802C2F1200C10FA0CF320FA31
:100C500002F018BF40F001004FEAC1234FEAD3234E
:100C600003FA0CFC40EA0C0023FA02F34FEA4303B8
:100C7000CCE77FEA625307D150EA01331EBF4FF041
:100C8000FE4040F44000704701F0004040F0FE405C
:100C900040F40000704700BF53B94AB9002908BFAB
:100CA00000281CBF4FF0FF314FF0FF3000F0AAB911
:100CB000ADF1080C6DE904CE00F03CF8DDF804E07D
:100CC000DDE9022304B0704738B500220023044652
:100CD0000D46FFF70BFF28B920462946BDE83840EE
:100CE00000F00AB8204605F1004100F005F8404246
:100CF00061EB410138BD00BFD0B50C4B0022064668
:100D00000F46FFF781FCFFF757FF0446FFF702FC91
:100D1000074B0022FFF778FC02460B463046394667
:100D2000FFF7BAFAFFF748FF2146D0BD0000F03DBB
:100D30000000F0412DE9F047089D04468E46002B47
:100D40004DD18A42944669D9B2FA82F252B101FA7F
:100D500002F3C2F1200120FA01F10CFA02FC41EA8F
:100D6000030E94404FEA1C48210CBEFBF8F61FFA14
:100D70008CF708FB16E341EA034306FB07F19942AF
:100D80000AD91CEB030306F1FF3080F01F81994262
:100D900040F21C81023E63445B1AA4B2B3FBF8F03C
:100DA00008FB103344EA034400FB07F7A7420AD9C3
:100DB0001CEB040400F1FF3380F00A81A74240F2EB
:100DC00007816444023840EA0640E41B00261DB156
:100DD000D4400023C5E900433146BDE8F0878B428B
:100DE00009D9002D00F0EF800026C5E9000130464A
:100DF0003146BDE8F087B3FA83F6002E4AD18B4224
:100E000002D3824200F2F980841A61EB03030120CD
:100E10009E46002DE0D0C5E9004EDDE702B9FFDEB9
:100E2000B2FA82F2002A40F09280A1EB0C014FEA64
:100E30001C471FFA8CFE0126200CB1FBF7F307FBC1
:100E4000131140EA01410EFB03F0884208D91CEB64
:100E5000010103F1FF3802D2884200F2CB80434601
:100E6000091AA4B2B1FBF7F007FB101144EA0144E0
:100E70000EFB00FEA64508D91CEB040400F1FF316F
:100E800002D2A64500F2BB800846A4EB0E0440EA5D
:100E900003409CE7C6F12007B34022FA07FC4CEA66
:100EA000030C20FA07F401FA06F31C43F9404FEA59
:100EB0001C4900FA06F3B1FBF9F8200C1FFA8CFE6E
:100EC00009FB181140EA014108FB0EF0884202FAC2
:100ED00006F20BD91CEB010108F1FF3A80F0888083
:100EE000884240F28580A8F102086144091AA4B240
:100EF000B1FBF9F009FB101144EA014100FB0EFEC1
:100F00008E4508D91CEB010100F1FF346CD28E45EF
:100F10006AD90238614440EA0840A0FB0294A1EB80
:100F20000E01A142C846A64656D353D05DB1B3EBDD
:100F3000080261EB0E0101FA07F722FA06F3F1400D
:100F40001F43C5E9007100263146BDE8F087C2F1B4
:100F50002003D8400CFA02FC21FA03F3914001432C
:100F60004FEA1C471FFA8CFEB3FBF7F007FB103665
:100F70000B0C43EA064300FB0EF69E4204FA02F411
:100F800008D91CEB030300F1FF382FD29E422DD964
:100F9000023863449B1B89B2B3FBF7F607FB163399
:100FA00041EA034106FB0EF38B4208D91CEB010119
:100FB00006F1FF3816D28B4214D9023E6144C91A99
:100FC00046EA004638E72E46284605E70646E3E6A9
:100FD0001846F8E64B45A9D2B9EB020864EB0C0EB3
:100FE0000138A3E74646EAE7204694E74046D1E7C2
:100FF000D0467BE7023B614432E7304609E7644470
:10100000023842E7704700BF80B586B000AF786015
:101010007B681B687B617B6903F00053002B3FD02A
:1010200000F086F80023BB601F4B5B6C1E4A43F444
:10103000804353641C4B5B6C03F48043BB60BB6810
:101040007B6804331B683B617B68184A93420CD170
:10105000174B1B68164A43F001031360144B1B68BF
:10106000134A23F00203136012E07B68B3F1006FB0
:101070000ED30F4B1B680E4A23F003031360BFF31C
:101080005F8F00BF0B4A7B689360BFF34F8F00BF39
:101090007B69FB60FB6883F3088800BF3B69984766
:1010A00000BF1837BD4680BD003802400000FF1F5A
:1010B0000038014000ED00E0B0B588B000AFF86046
:1010C000B9607A600023FB7500233B6126E0FB7D5D
:1010D000002B04D1FA683B6913441B68BB61FB7D9C
:1010E000022B01D9FB7F1EE0BA683B69D118BB69AE
:1010F00000221C46154622462B46022000F0E6FF41
:101100000346FB77FB7F002B03D0FB7D0133FB7590
:1011100004E00023FB753B6904333B613A697B685B
:101120009A42D4D3FB7F18462037BD46B0BD00009D
:1011300080B400AF72B600BF294B01221A61284B60
:1011400000221A61264B10225A62254B00225A6255
:10115000234B1B68224A43F00103136000BF204B5E
:101160001B6803F00203022BF9D11D4B1B681C4ABC
:1011700043F0800313601A4B00229A6000BF184BA3
:101180009B6803F00C03002BF9D1154B1B68144A24
:1011900023F45023136000BF114B1B6803F400338A
:1011A000002BF9D10E4B1B680D4A23F0807313609E
:1011B00000BF0B4B1B6803F00073002BF9D1084BE9
:1011C000084A5A60084B00221A60074B00225A60F6
:1011D000054B00229A6000BFBD465DF8047B704756
:1011E000003802401030000410E000E080B400AF8E
:1011F000174B184A1A60164B174A5A60144B174A75
:101200009A60134B164ADA60114B164A1A61104B5A
:10121000154A5A610E4B154A9A610D4B144ADA6110
:101220000B4B144A1A620A4B134A5A62084B134A70
:101230009A62074B124ADA62054B124A1A63044B50
:10124000114A5A6300BFBD465DF8047B704700BF7A
:10125000FC0100208D120008311300084D13000816
:1012600069130008CD130008251400088114000834
:10127000CD140008E9150008111500082D15000807
:101280004915000871150008AD15000880B500AFBC
:10129000642332221D491E4802F093F9642332224E
:1012A0001C491B4802F08DF9642332221749184863
:1012B00002F087F9642318221749154802F081F9D2
:1012C000642307221549124802F07BF9642318228F
:1012D00013490F4802F075F96423082211490C489C
:1012E00002F06FF9642318220F49094802F069F9E6
:1012F000642312220D49064802F063F96423322266
:101300000249034802F05DF900BF80BD8C900008DF
:1013100040040020C0900008F49000086890000885
:101320000C91000870900008249100087890000843
:1013300080B500AF00F01EFF0346002B02D000F086
:1013400075F901E000F060F900BF80BD80B500AF25
:1013500000F032FF0346002B02D000F067F901E0F5
:1013600000F052F900BF80BDB0B582B000AF154BA0
:101370001B683B6000237B601BE07B689B001A4678
:101380003B68D1187B689B0005330F4A13441B68E8
:1013900000221C46154622462B46022000F096FEEF
:1013A0000346002B02D000F041F907E07B680133CF
:1013B0007B607B68032BE0D900F026F90837BD4637
:1013C000B0BD00BF410200204002002080B582B0C5
:1013D00000AF114B1B683B6000237B600EE07B6815
:1013E0009B001A463B68134419467B689B000B4AD6
:1013F00013440A681A607B6801337B607B68032BA7
:10140000EDD9642310220549054802F0DAF800BF3F
:101410000837BD4680BD00BF4102002040030020C8
:101420004004002080B586B000AF00233B6001235C
:10143000BB60114B5B78FB600F4B9B783B610023DB
:101440007B6002237B613A463B1D1146184601F042
:101450003BF83B68B3F1FF3F08D000F0E7F83946AE
:1014600064230122054802F0ACF801E000F0CCF85A
:101470001837BD4680BD00BF400200204004002058
:1014800080B586B000AF00233B600123BB60012321
:101490007B6002237B613A463B1D1146184601F0F2
:1014A00013F83B68B3F1FF3F08D000F0BFF83946AE
:1014B00064230122044802F084F801E000F0A4F85B
:1014C0001837BD4680BD00BF4004002080B584B001
:1014D00000AF0C4B1B68FB600B4B1B68BB600B4BDE
:1014E0001B687B607A68B968F868FFF7E5FD03461A
:1014F000002B02D000F09AF801E000F085F81037D8
:10150000BD4680BD41020020450200204902002066
:1015100080B500AF00F060FE0346002B02D000F063
:1015200085F801E000F070F800BF80BD80B500AF25
:1015300000F06EFE0346002B02D000F077F801E0C9
:1015400000F062F800BF80BD80B500AF054B064AD1
:101550001B681360642304220349044802F031F835
:1015600000BF80BD143C0240400300204004002026
:1015700080B588B000AF01237B6001233B6101236C
:10158000BB60094B5B78FB603B1D184601F00CF813
:101590000346002B02D000F049F801E000F034F8D7
:1015A0002037BD4680BD00BF4002002080B588B016
:1015B00000AF01237B6001233B610023BB60094B2B
:1015C0005B78FB603B1D184600F0EEFF0346002BE6
:1015D00002D000F02BF801E000F016F82037BD46ED
:1015E00080BD00BF4002002080B582B000AF054B37
:1015F0001B687B607868FFF707FD00BF0837BD46B2
:1016000080BD00BF4102002080B500AF054B4122E4
:101610001A70642301220349034801F0D2FF00BF7E
:1016200080BD00BF400300204004002080B582B090
:1016300000AF2E4B4E221A700023FB7100F0F8FD14
:1016400038603B6803F00103002B06D0FB790133BF
:10165000FB71FB79254AE521D1543B6803F0020375
:10166000002B06D0FB790133FB71FB791F4AE12186
:10167000D1543B6803F00403002B06D0FB790133FF
:10168000FB71FB79194AE221D1543B6803F008034E
:10169000002B06D0FB790133FB71FB79134AE32160
:1016A000D1543B6803F01003002B06D0FB790133C3
:1016B000FB71FB790D4AE421D1543B6803F0200310
:1016C000002B06D0FB790133FB71FB79074AE62139
:1016D000D154FB799BB201339AB264230349044885
:1016E00001F06FFF00BF0837BD4680BD40030020FA
:1016F0004004002080B584B002AF00F0D1FA00F0C1
:1017000025F800F0B9F800F08DF8FFF76FFDBB1D6C
:10171000642200924FF4807209490A4801F0E3FF05
:101720000346002BF3D1064B1B78102BEFD8044B4C
:101730001B781A46044B53F822309847E7E700BF5E
:101740004002002040040020FC01002080B594B03D
:1017500000AF07F1200330220021184602F0FEFFFF
:1017600007F10C0300221A605A609A60DA601A616D
:101770000023BB60294B1B6C284A43F08053136441
:10178000264B1B6C03F08053BB60BB6800237B605F
:10179000234B1B6823F44043214A43F40043136066
:1017A0001F4B1B6803F440437B607B6801233B6253
:1017B0004FF480337B620223BB634FF48003FB63EF
:1017C00019233B644FF4A8737B640423BB64072391
:1017D000FB6407F12003184601F04EFA0346002B84
:1017E00001D000F0A9F80F23FB6002233B61002326
:1017F0007B614FF48053BB610023FB6107F10C0355
:101800000221184601F0B0FC0346002B01D000F085
:1018100093F800BF5037BD4680BD00BF003802407E
:101820000070004080B500AF114B124A1A60104B97
:101830004FF4E1325A600E4B00229A600C4B0022AA
:10184000DA600B4B00221A61094B0C225A61084BDB
:1018500000229A61064B0022DA61054801F064FE1D
:101860000346002B01D000F067F800BF80BD00BF29
:10187000400400200010014080B58AB000AF07F19D
:10188000140300221A605A609A60DA601A61002319
:101890003B61274B1B6B264A43F004031363244B25
:1018A0001B6B03F004033B613B690023FB60204B8F
:1018B0001B6B1F4A43F0800313631D4B1B6B03F02C
:1018C0008003FB60FB680023BB60194B1B6B184A4D
:1018D00043F001031363164B1B6B03F00103BB6062
:1018E000BB6800237B60124B1B6B114A43F0020361
:1018F00013630F4B1B6B03F002037B607B680022BA
:101900004FF400510B4801F09DF94FF400537B61F7
:101910000123BB610023FB6100233B6207F1140339
:101920001946044801F00AF800BF2837BD4680BDBB
:10193000003802400008024080B400AF72B600BF19
:10194000FEE7000080B483B000AF00237B60104B43
:101950005B6C0F4A43F4804353640D4B5B6C03F4A0
:1019600080437B607B6800233B60094B1B6C084A0B
:1019700043F080531364064B1B6C03F080533B60B1
:101980003B6800BF0C37BD465DF8047B704700BF65
:101990000038024080B58AB000AF786007F11403C8
:1019A00000221A605A609A60DA601A617B681B68CC
:1019B0001D4A934234D100233B611C4B5B6C1B4A94
:1019C00043F010035364194B5B6C03F010033B614D
:1019D0003B690023FB60154B1B6B144A43F001036A
:1019E0001363124B1B6B03F00103FB60FB684FF4A6
:1019F000C0637B610223BB610023FB6103233B6265
:101A000007237B6207F114031946094800F096FF8B
:101A100000220121252000F090FA252000F0A9FAEB
:101A200000BF2837BD4680BD00100140003802408D
:101A30000000024080B400AFFEE780B400AFFEE7D4
:101A400080B400AFFEE780B400AFFEE780B400AF23
:101A5000FEE780B400AF00BFBD465DF8047B704771
:101A600080B400AF00BFBD465DF8047B704780B412
:101A700000AF00BFBD465DF8047B704780B500AF86
:101A800000F060F900BF80BD80B500AF024801F0F2
:101A900007FF00BF80BD00BF4004002080B400AF3E
:101AA00001231846BD465DF8047B704780B582B0BF
:101AB00000AF7860396002F027FE034616221A60F4
:101AC0004FF0FF3318460837BD4680BD80B582B061
:101AD00000AF78604FF0FF317868FFF7E7FFFEE76F
:101AE00080B586B000AFF860B9607A6000237B6192
:101AF0000AE0AFF300800146BB685A1CBA60CAB264
:101B00001A707B6901337B617A697B689A42F0DBEA
:101B10007B6818461837BD4680BD80B586B000AFDB
:101B2000F860B9607A6000237B6109E0BB685A1CE9
:101B3000BA601B781846AFF300807B6901337B6184
:101B40007A697B689A42F1DB7B6818461837BD4694
:101B500080BD80B483B000AF78604FF0FF3318468B
:101B60000C37BD465DF8047B704780B483B000AF8E
:101B7000786039603B684FF400525A600023184681
:101B80000C37BD465DF8047B704780B483B000AF6E
:101B90007860012318460C37BD465DF8047B70471A
:101BA00080B485B000AFF860B9607A600023184651
:101BB0001437BD465DF8047B7047000080B586B0E1
:101BC00000AF7860144A154BD31A7B617B693B6187
:101BD000134B1B68002B02D1114B124A1A60104B99
:101BE0001A687B6813443A699A4207D202F08CFD66
:101BF00003460C221A604FF0FF3309E0084B1B68C4
:101C0000FB60074B1A687B681344054A1360FB6846
:101C100018461837BD4680BD0000012000040000B2
:101C200084040020C004002080B400AF064BD3F829
:101C30008830054A43F47003C2F8883000BFBD46BF
:101C40005DF8047B704700BF00ED00E0DFF834D0A2
:101C50000D480E490E4A002302E0D458C450043304
:101C6000C4188C42F9D30B4A0B4C002301E01360DB
:101C70000432A242FBD3FFF7D7FF02F04BFDFFF780
:101C800039FD70470000012000000020E001002025
:101C90000C960008E0010020BC040020FEE70000D4
:101CA00080B500AF0E4B1B680D4A43F40073136000
:101CB0000B4B1B680A4A43F480631360084B1B6894
:101CC000074A43F480731360032000F02BF90F20C0
:101CD00000F008F8FFF736FE0023184680BD00BF6D
:101CE000003C024080B582B000AF7860124B1A68A9
:101CF000124B1B7819464FF47A73B3FBF1F3B2FB26
:101D0000F3F3184600F043F90346002B01D00123FA
:101D10000EE07B680F2B0AD8002279684FF0FF3065
:101D200000F00BF9064A7B681360002300E00123F2
:101D300018460837BD4680BD00000020080000207E
:101D40000400002080B400AF064B1B781A46064BF7
:101D50001B681344044A136000BFBD465DF8047B52
:101D6000704700BF080000208804002080B400AF46
:101D7000034B1B681846BD465DF8047B704700BFE7
:101D80008804002080B485B000AF78607B6803F0E1
:101D90000703FB600C4BDB68BB60BA684FF6FF03C0
:101DA0001340BB60FB681A02BB68134343F0BF6378
:101DB00043F40033BB60044ABB68D36000BF1437F0
:101DC000BD465DF8047B704700ED00E080B400AFD5
:101DD000044BDB681B0A03F007031846BD465DF899
:101DE000047B704700ED00E080B483B000AF034691
:101DF000FB7197F90730002B0BDBFB7903F01F0217
:101E0000074997F907305B09012000FA02F241F80F
:101E1000232000BF0C37BD465DF8047B704700BF30
:101E200000E100E080B483B000AF03463960FB718D
:101E300097F90730002B0ADB3B68DAB20C4997F9B7
:101E400007301201D2B20B4483F800230AE03B684A
:101E5000DAB20849FB7903F00F03043B1201D2B256
:101E60000B441A7600BF0C37BD465DF8047B704703
:101E700000E100E000ED00E080B489B000AFF86060
:101E8000B9607A60FB6803F00703FB61FB69C3F18B
:101E90000703042B28BF0423BB61FB690433062B13
:101EA00002D9FB69033B00E000237B614FF0FF3266
:101EB000BB6902FA03F3DA43BB681A407B699A40B4
:101EC0004FF0FF317B6901FA03F3D9437B680B4084
:101ED000134318462437BD465DF8047B7047000065
:101EE00080B582B000AF78607B68013BB3F1807F42
:101EF00001D301230FE00A4A7B68013B53600F21A5
:101F00004FF0FF30FFF78EFF054B00229A60044B25
:101F100007221A60002318460837BD4680BD00BF5F
:101F200010E000E080B582B000AF78607868FFF71D
:101F300029FF00BF0837BD4680BD80B586B000AF21
:101F40000346B9607A60FB7300237B61FFF73EFFB5
:101F500078617A68B9687869FFF78EFF024697F969
:101F60000F3011461846FFF75DFF00BF1837BD461A
:101F700080BD80B582B000AF0346FB7197F9073092
:101F80001846FFF731FF00BF0837BD4680BD80B55A
:101F900082B000AF78607868FFF7A2FF034618466A
:101FA0000837BD4680BD80B584B000AF78607B68DF
:101FB0009B6DFB60FFF7DAFEB8607B6893F8353005
:101FC000DBB2022B08D07B6880225A657B68002236
:101FD00083F83420012352E07B681B681A687B6811
:101FE0001B6822F016021A607B681B685A697B68BE
:101FF0001B6822F080025A617B681B6C002B03D1A6
:102000007B689B6C002B07D07B681B681A687B6819
:102010001B6822F008021A607B681B681A687B68DC
:102020001B6822F001021A6013E0FFF79FFE0246D0
:10203000BB68D31A052B0CD97B6820225A657B68B4
:10204000032283F835207B68002283F834200323A1
:1020500015E07B681B681B6803F00103002BE4D1CB
:102060007B68DB6D3F229A40FB689A607B680122A7
:1020700083F835207B68002283F83420002318463B
:102080001037BD4680BD80B483B000AF78607B68F8
:1020900093F83530DBB2022B04D07B6880225A657E
:1020A00001230CE07B68052283F835207B681B68E0
:1020B0001A687B681B6822F001021A600023184628
:1020C0000C37BD465DF8047B7047000080B586B0D4
:1020D00000AFF860B960C7E900230123FB75234B0B
:1020E0001B7E012B01D102233BE0204B01221A76FB
:1020F0004CF2503000F0A8F80346FB75FB7D002B36
:102100002BD1FB68002B05D13B781946B86800F04D
:1021100053F916E0FB68012B05D13B881946B868D6
:1021200000F026F90DE0FB68022B05D13B6819464B
:10213000B86800F0FBF804E0D7E90023B86800F0C5
:10214000C3F84CF2503000F07FF80346FB75084BA3
:102150001B69074A23F001031361044B00221A761E
:10216000FB7D18461837BD4680BD00BF8C0400209B
:10217000003C024080B483B000AF0023FB710B4BE6
:102180001B69002B0BDA094B094A5A60074B094AB5
:102190005A60064B1B69002B01DA0123FB71FB79A6
:1021A00018460C37BD465DF8047B7047003C024082
:1021B00023016745AB89EFCD80B400AF054B1B69A8
:1021C000044A43F00043136100231846BD465DF8FE
:1021D000047B7047003C024080B400AF094B5B6950
:1021E00003F00103002B07D0064B074A9A60054B0A
:1021F000064A9A60002300E001231846BD465DF8B8
:10220000047B7047003C02403B2A19087F6E5D4CFE
:1022100080B400AF054B5B69044A43F0010353618E
:1022200000231846BD465DF8047B7047003C024021
:1022300080B400AF034BDB691846BD465DF8047BF4
:10224000704700BF8C04002080B584B000AF786078
:102250000023FB601A4B0022DA61FFF787FDF8606C
:1022600010E07B68B3F1FF3F0CD07B68002B07D0F8
:10227000FFF77CFD0246FB68D31A7A689A4201D2C6
:10228000032319E00F4BDB6803F48033002BE8D104
:102290000C4BDB6803F00103002B02D0094B012239
:1022A000DA60084BDB6803F4F973002B03D000F00D
:1022B000A5F8012300E0002318461037BD4680BD75
:1022C0008C040020003C024080B485B000AFF86070
:1022D000C7E90023144B1B69134A23F440731361AD
:1022E000114B1B69104A43F4407313610E4B1B6979
:1022F0000D4A43F001031361FB683A681A60BFF3AB
:102300006F8F00BFD7E900014FF000024FF00003CC
:102310000A000023F968043113460B6000BF14372C
:10232000BD465DF8047B7047003C024080B483B03A
:1023300000AF786039600D4B1B690C4A23F4407381
:1023400013610A4B1B69094A43F400731361074B7D
:102350001B69064A43F0010313617B683A681A60FF
:1023600000BF0C37BD465DF8047B7047003C02405F
:1023700080B483B000AF78600B467B800D4B1B6947
:102380000C4A23F4407313610A4B1B69094A43F456
:1023900080731361074B1B69064A43F00103136105
:1023A0007B687A881A8000BF0C37BD465DF8047BD5
:1023B000704700BF003C024080B483B000AF78603B
:1023C0000B46FB700C4B1B690B4A23F440731361E3
:1023D000094B094A1B691361074B1B69064A43F005
:1023E000010313617B68FA781A7000BF0C37BD4691
:1023F0005DF8047B704700BF003C024080B400AF32
:102400002F4BDB6803F01003002B08D02D4BDB694A
:1024100043F010032B4AD361294B1022DA60284B7A
:10242000DB6803F02003002B08D0264BDB6943F068
:102430000803244AD361224B2022DA60204BDB6858
:1024400003F04003002B08D01E4BDB6943F004036C
:102450001C4AD3611A4B4022DA60194BDB6803F047
:102460008003002B08D0174BDB6943F00203154AA9
:10247000D361134B8022DA60114BDB6803F4807365
:10248000002B09D00F4BDB6943F001030D4AD361E8
:102490000B4B4FF48072DA60094BDB6803F00203E8
:1024A000002B08D0074BDB6943F02003054AD361BA
:1024B000034B0222DA6000BFBD465DF8047B704723
:1024C000003C02408C04002080B584B000AF7860EE
:1024D00039600123FB730023BB60314B1B7E012B52
:1024E00001D1022358E02E4B01221A764CF25030D3
:1024F000FFF7AAFE0346FB73FB7B002B48D13B682A
:102500004FF0FF321A607B681B68012B15D17B6886
:102510001B69DAB27B685B681946104600F0B2F8B6
:102520004CF25030FFF790FE0346FB731D4B1B69C6
:102530001C4A23F00403136128E07B689B68BB609E
:102540001CE07B681B69DBB21946B86800F0BEF876
:102550004CF25030FFF778FE0346FB73114B1B69BA
:10256000104A23F0FA031361FB7B002B03D03B6876
:10257000BA681A600AE0BB680133BB607B68DA683E
:102580007B689B681344BA689A42DAD300F090F9EA
:10259000034B00221A76FB7B18461037BD4680BDE0
:1025A0008C040020003C024080B584B000AF78600D
:1025B0000123FB73324B1B7E012B01D102235BE015
:1025C0002F4B01221A767B681B6803F00103002B56
:1025D00018D07B685B68012B0AD17B689A687B689E
:1025E000DB681946104600F0B9F80346FB7309E0B2
:1025F0007B689A687B68DB681946104600F0D0F863
:102600000346FB737B681B6803F00203002B07D0B3
:102610007B681B69DBB2184600F0E2F80346FB73E7
:102620007B681B6803F00403002B13D07B681B7EC0
:1026300003F02003D8B27B681B7E03F04003D9B2BD
:102640007B681B7E23F07F03DBB21A4600F0E2F8C2
:102650000346FB737B681B6803F00803002B07D05D
:102660007B685B69DBB2184600F004F90346FB7334
:10267000034B00221A76FB7B18461037BD4680BDFF
:102680008C04002080B483B000AF03463960FB7136
:102690000D4B1B690C4A23F4407313610A4B1B69F1
:1026A000094A43F004031361074B1A69FB791B02C3
:1026B0001343054A43F48033136100BF0C37BD4612
:1026C0005DF8047B704700BF003C024080B485B0D9
:1026D00000AF78600B46FB700023FB60FB78002B9B
:1026E00002D10023FB6010E0FB78012B03D14FF4F3
:1026F0008073FB6009E0FB78022B03D14FF4007379
:10270000FB6002E04FF44073FB60134B1B69124AFD
:1027100023F440731361104B1A690F49FB6813438C
:102720000B610D4B1B690C4A23F0F80313610A4B34
:102730001A697B68DB001343074A43F00203136105
:10274000054B1B69044A43F48033136100BF1437FF
:10275000BD465DF8047B7047003C024080B584B004
:1027600000AF786039600023FB734CF25030FFF704
:102770006BFD0346FB73FB7B002B0AD1074B1B88C9
:102780009AB27B689BB2DB439BB2044913409BB275
:102790000B80FB7B18461037BD4680BD163C0240BF
:1027A00080B584B000AF786039600023FB734CF2D1
:1027B0005030FFF749FD0346FB73FB7B002B08D12C
:1027C000064B1B889AB27B689BB2044913439BB2A9
:1027D0000B80FB7B18461037BD4680BD163C02407F
:1027E00080B584B000AF0346FB710023FB734CF24D
:1027F0005030FFF729FD0346FB73FB7B002B02D112
:10280000034AFB791370FB7B18461037BD4680BD29
:10281000153C024080B584B000AF0346FB710B4607
:10282000BB7113467B71FF23FB730023BB734CF218
:102830005030FFF709FD0346BB73BB7B002B11D162
:102840000B4B1B78DBB203F01F03FB73BA79FB7BE6
:102850001343DAB27B791343DAB20549FB791343A8
:10286000DBB20B70BB7B18461037BD4680BD00BF86
:10287000143C024080B483B000AF0346FB710B4BA5
:102880001B78DBB2094A23F00C03DBB21370074B51
:102890001B78DAB20549FB791343DBB20B700023D6
:1028A00018460C37BD465DF8047B7047143C024067
:1028B00080B400AF204B1B6803F40073002B17D0CB
:1028C0001D4B1B681C4A23F4007313601A4B1B68D2
:1028D000194A43F400631360174B1B68164A23F42C
:1028E00000631360144B1B68134A43F400731360B6
:1028F000114B1B6803F48063002B17D00E4B1B6831
:102900000D4A23F4806313600B4B1B680A4A43F49F
:1029100080531360084B1B68074A23F480531360ED
:10292000054B1B68044A43F48063136000BFBD4637
:102930005DF8047B704700BF003C024080B489B062
:1029400000AF7860396000237B6100233B61002386
:10295000BB610023FB6159E10122FB6902FA03F329
:102960007B613B681B687A6913403B613A697B690C
:102970009A4240F048813B685B6803F00303012BF7
:1029800005D03B685B6803F00303022B30D17B6802
:102990009B68BB61FB695B00032202FA03F3DB4324
:1029A000BA691340BB613B68DA68FB695B0002FAF5
:1029B00003F3BA691343BB617B68BA699A607B68A9
:1029C0005B68BB610122FB6902FA03F3DB43BA696E
:1029D0001340BB613B685B681B0903F00102FB69A4
:1029E00002FA03F3BA691343BB617B68BA695A60A0
:1029F0003B685B6803F00303032B17D07B68DB683D
:102A0000BB61FB695B00032202FA03F3DB43BA6993
:102A10001340BB613B689A68FB695B0002FA03F3F1
:102A2000BA691343BB617B68BA69DA603B685B686B
:102A300003F00303022B23D1FB69DA087B68083219
:102A400053F82230BB61FB6903F007039B000F22A0
:102A500002FA03F3DB43BA691340BB613B681A69AE
:102A6000FB6903F007039B0002FA03F3BA691343FF
:102A7000BB61FB69DA087B680832B96943F8221048
:102A80007B681B68BB61FB695B00032202FA03F3EE
:102A9000DB43BA691340BB613B685B6803F0030228
:102AA000FB695B0002FA03F3BA691343BB617B68FD
:102AB000BA691A603B685B6803F44033002B00F08E
:102AC000A2800023FB60574B5B6C564A43F4804363
:102AD0005364544B5B6C03F48043FB60FB68524AC5
:102AE000FB699B08023352F82330BB61FB6903F09A
:102AF00003039B000F2202FA03F3DB43BA6913407E
:102B0000BB617B68494A934219D07B68484A93422B
:102B100013D07B68474A93420DD07B68464A934264
:102B200007D07B68454A934201D1042308E007237C
:102B300006E0032304E0022302E0012300E0002377
:102B4000FA6902F0030292009340BA691343BB6131
:102B50003549FB699B080233BA6941F82320384B99
:102B60009B68BB613B69DB43BA691340BB613B684F
:102B70005B6803F48013002B03D0BA693B691343ED
:102B8000BB612F4ABB6993602D4BDB68BB613B691E
:102B9000DB43BA691340BB613B685B6803F4001315
:102BA000002B03D0BA693B691343BB61244ABB695C
:102BB000D360234B5B68BB613B69DB43BA6913405D
:102BC000BB613B685B6803F40033002B03D0BA6938
:102BD0003B691343BB611A4ABB695360184B1B68BE
:102BE000BB613B69DB43BA691340BB613B685B680F
:102BF00003F48033002B03D0BA693B691343BB61F4
:102C00000F4ABB691360FB690133FB61FB690F2B42
:102C10007FF6A2AE00BF00BF2437BD465DF8047B3F
:102C2000704700BF003802400038014000000240F9
:102C30000004024000080240000C02400010024064
:102C4000003C014080B483B000AF78600B467B80CD
:102C500013467B707B78002B03D07A887B689A615F
:102C600003E07B881A047B689A6100BF0C37BD467D
:102C70005DF8047B7047000080B586B000AF7860D7
:102C80007B68002B01D1012367E27B681B6803F09E
:102C90000103002B75D0884B9B6803F00C03042BB9
:102CA0000CD0854B9B6803F00C03082B12D1824B90
:102CB0005B6803F48003B3F5800F0BD17E4B1B6878
:102CC00003F40033002B5BD07B685B68002B57D18B
:102CD000012342E27B685B68B3F5803F06D1764B07
:102CE0001B68754A43F4803313601DE07B685B68A2
:102CF000B3F5A02F0CD1704B1B686F4A43F48023AF
:102D000013606D4B1B686C4A43F4803313600BE017
:102D1000694B1B68684A23F480331360664B1B6859
:102D2000654A23F4802313607B685B68002B13D013
:102D3000FFF71CF8386108E0FFF718F802463B6916
:102D4000D31A642B01D9032307E25B4B1B6803F4FE
:102D50000033002BF0D014E0FFF708F8386108E0EA
:102D6000FFF704F802463B69D31A642B01D9032309
:102D7000F3E1514B1B6803F40033002BF0D100E06A
:102D800000BF7B681B6803F00203002B63D04A4B33
:102D90009B6803F00C03002B0BD0474B9B6803F0A0
:102DA0000C03082B1CD1444B5B6803F48003002BFD
:102DB00016D1414B1B6803F00203002B05D07B6842
:102DC000DB68012B01D00123C7E13B4B1B6823F0DB
:102DD000F8027B681B69DB00374913430B603AE05C
:102DE0007B68DB68002B20D0344B01221A60FEF791
:102DF000BDFF386108E0FEF7B9FF02463B69D31A10
:102E0000022B01D90323A8E12B4B1B6803F002031B
:102E1000002BF0D0284B1B6823F0F8027B681B695D
:102E2000DB00254913430B6015E0244B00221A6098
:102E3000FEF79CFF386108E0FEF798FF02463B6909
:102E4000D31A022B01D9032387E11B4B1B6803F024
:102E50000203002BF0D17B681B6803F00803002BF2
:102E600036D07B685B69002B16D0154B01221A60A7
:102E7000FEF77CFF386108E0FEF778FF02463B6909
:102E8000D31A022B01D9032367E10B4B5B6F03F0CD
:102E90000203002BF0D01BE0094B00221A60FEF762
:102EA00065FF38610EE0FEF761FF02463B69D31A09
:102EB000022B07D9032350E10038024000004742AB
:102EC000800E4742884B5B6F03F00203002BEAD170
:102ED0007B681B6803F00403002B00F0978000233D
:102EE000FB75814B1B6C03F08053002B0FD100232B
:102EF000BB607D4B1B6C7C4A43F0805313647A4B60
:102F00001B6C03F08053BB60BB680123FB75774BE0
:102F10001B6803F48073002B18D1744B1B68734A31
:102F200043F480731360FEF721FF386108E0FEF779
:102F30001DFF02463B69D31A022B01D903230CE182
:102F40006A4B1B6803F48073002BF0D07B689B688E
:102F5000012B06D1644B1B6F634A43F001031367D7
:102F60001CE07B689B68052B0CD15F4B1B6F5E4A96
:102F700043F0040313675C4B1B6F5B4A43F0010390
:102F800013670BE0584B1B6F574A23F0010313677D
:102F9000554B1B6F544A23F0040313677B689B68EF
:102FA000002B15D0FEF7E2FE38610AE0FEF7DEFEE8
:102FB00002463B69D31A41F28832934201D9032376
:102FC000CBE0494B1B6F03F00203002BEED014E063
:102FD000FEF7CCFE38610AE0FEF7C8FE02463B6908
:102FE000D31A41F28832934201D90323B5E03E4B14
:102FF0001B6F03F00203002BEED1FB7D012B05D1EB
:10300000394B1B6C384A23F0805313647B689B69EF
:10301000002B00F0A180344B9B6803F00C03082BBD
:103020005CD07B689B69022B41D1314B00221A6036
:10303000FEF79CFE386108E0FEF798FE02463B6909
:10304000D31A022B01D9032387E0274B1B6803F017
:103050000073002BF0D17B68DA697B681B6A1A4326
:103060007B685B6A9B011A437B689B6A5B08013B38
:103070001B041A437B68DB6A1B061B4913434B6026
:103080001B4B01221A60FEF771FE386108E0FEF763
:103090006DFE02463B69D31A022B01D903235CE083
:1030A000114B1B6803F00073002BF0D054E0104B61
:1030B00000221A60FEF75AFE386108E0FEF756FE5D
:1030C00002463B69D31A022B01D9032345E0064B84
:1030D0001B6803F00073002BF0D13DE07B689B6917
:1030E000012B07D1012338E0003802400070004076
:1030F000600047421B4B5B68FB607B689B69012B50
:1031000028D0FB6803F480027B68DB699A4221D1F6
:10311000FB6803F03F027B681B6A9A421AD1FA6887
:1031200047F6C07313407A68526A9201934211D1F4
:10313000FB6803F440327B689B6A5B08013B1B041D
:103140009A4207D1FB6803F070627B68DB6A1B065A
:103150009A4201D0012300E0002318461837BD46EB
:1031600080BD00BF0038024080B584B000AF7860F9
:1031700039607B68002B01D10123CCE0684B1B68D0
:1031800003F007033A689A420CD9654B3A68D2B209
:103190001A70634B1B6803F007033A689A4201D028
:1031A0000123B8E07B681B6803F00203002B20D0EA
:1031B0007B681B6803F00403002B05D0594B9B6808
:1031C000584A43F4E05393607B681B6803F008039C
:1031D000002B05D0534B9B68524A43F460439360E5
:1031E000504B9B6823F0F0027B689B684D4913436A
:1031F0008B607B681B6803F00103002B44D07B6865
:103200005B68012B07D1474B1B6803F40033002B8D
:1032100019D101237FE07B685B68022B03D07B68B8
:103220005B68032B07D13F4B1B6803F00073002B37
:1032300009D101236FE03B4B1B6803F00203002B15
:1032400001D1012367E0374B9B6823F003027B68C1
:103250005B68344913438B60FEF788FDF8600AE031
:10326000FEF784FD0246FB68D31A41F2883293428E
:1032700001D903234FE02B4B9B6803F00C027B68C2
:103280005B689B009A42EBD1254B1B6803F0070358
:103290003A689A420CD2224B3A68D2B21A70204B4A
:1032A0001B6803F007033A689A4201D0012332E019
:1032B0007B681B6803F00403002B08D0194B9B6844
:1032C00023F4E0527B68DB68164913438B607B680C
:1032D0001B6803F00803002B09D0124B9B6823F4F2
:1032E00060427B681B69DB000E4913438B6000F072
:1032F00021F802460B4B9B681B0903F00F030A4998
:10330000CB5C22FA03F3094A1360094B1B68184689
:10331000FEF7E8FC002318461037BD4680BD00BF0D
:10332000003C0240003802403C91000800000020B0
:10333000040000202DE9B04F90B000AF00237B6364
:103340000023FB6300233B630023BB63594B9B6853
:1033500003F00C03082B0DD0082B00F2A180002BEA
:1033600002D0042B03D09BE0534BBB639BE0534B39
:10337000BB6398E04F4B5B6803F03F037B634D4BAF
:103380005B6803F48003002B28D04A4B5B689B09E1
:1033900000223B627A623B6AC3F308000021474B7C
:1033A00003FB01F2002300FB03F31344434AA0FB99
:1033B0000212FA620A46BA62FA6A1344FB627B6B33
:1033C0000022BB61FA61D7E90623D7E90A01FDF7BC
:1033D00063FC02460B461346FB6353E0354B5B68C8
:1033E0009B0900223B617A613B69C3F3080A4FF0F5
:1033F000000B52465B464FF000004FF000015901B0
:1034000041EAD261500102460B46B2EB0A0863EB77
:103410000B094FF000024FF000034FEA891343EA13
:1034200098634FEA8812B2EB080463EB09054FF08A
:1034300000024FF00003EB0043EA5473E20014462D
:103440001D4614EB0A033B6045EB0B037B604FF01A
:1034500000024FF00003D7E9004529468B022146C0
:1034600043EA915321468A02104619467B6B00229B
:10347000BB60FA60D7E90223FDF70EFC02460B465B
:103480001346FB630B4B5B681B0C03F00303013318
:103490005B003B63FA6B3B6BB2FBF3F3BB6302E095
:1034A000054BBB6300BFBB6B18464037BD46BDE84C
:1034B000B08F00BF003802400024F40040787D0146
:1034C00080B400AF034B1B681846BD465DF8047B13
:1034D000704700BF0000002080B500AFFFF7F0FF8D
:1034E0000246054B9B689B0A03F007030349CB5C2C
:1034F00022FA03F3184680BD003802404C910008C0
:1035000080B500AFFFF7DCFF0246054B9B685B0B05
:1035100003F007030349CB5C22FA03F3184680BD8E
:10352000003802404C91000880B582B000AF78604E
:103530007B68002B01D101233FE07B6893F83D308D
:10354000DBB2002B06D17B68002283F83C20786830
:10355000FEF720FA7B68242283F83D207B681B68F5
:10356000DA687B681B6822F40052DA60786800F041
:1035700057FE7B681B681A697B681B6822F49042BF
:103580001A617B681B685A697B681B6822F02A02F3
:103590005A617B681B68DA687B681B6842F40052DA
:1035A000DA607B6800221A647B68202283F83D2061
:1035B0007B68202283F83E20002318460837BD464A
:1035C00080BD80B58AB002AFF860B9603B60134639
:1035D000FB8000237B61FB6893F83D30DBB2202B3E
:1035E0007CD1BB68002B02D0FB88002B01D10123CA
:1035F00075E0FB6893F83C30012B01D102236EE0AB
:10360000FB68012283F83C20FB6800221A64FB68F7
:10361000212283F83D20FEF7A9FB7861FB68FA8838
:103620009A84FB68FA88DA84FB689B68B3F5805F4C
:1036300008D1FB681B69002B04D10023FB61BB6828
:10364000BB6103E0BB68FB610023BB61FB68002238
:1036500083F83C202AE03B6800937B6900228021AC
:10366000F86800F0D5FB0346002B01D0032336E0B9
:10367000FB69002B0BD1BB691B881A46FB681B68D2
:10368000C2F308025A60BB690233BB6107E0FB6901
:103690001A78FB681B685A60FB690133FB61FB68A1
:1036A000DB8C9BB2013B9AB2FB68DA84FB68DB8C53
:1036B0009BB2002BCFD13B6800937B690022402155
:1036C000F86800F0A5FB0346002B01D0032306E0B9
:1036D000FB68202283F83D20002300E002231846E7
:1036E0002037BD4680BD80B588B000AFF860B960B6
:1036F0003B601346FB80FB6893F83E30DBB2202B27
:1037000040F0C980BB68002B02D0FB88002B01D1A0
:103710000123C1E0FB6893F83C30012B01D1022367
:10372000BAE0FB68012283F83C20FB6800221A649F
:10373000FB68222283F83E20FB6801221A63FEF711
:1037400015FB7861FB68FA889A85FB68FA88DA8548
:10375000FB689B68B3F5805F08D1FB681B69002B91
:1037600004D10023FB61BB68BB6103E0BB68FB6164
:103770000023BB61FB68002283F83C203B680022E9
:103780001A8074E0FB681B681B6803F01003102BA1
:1037900014D100233B61FB681B681B683B61FB681D
:1037A0001B685B683B613B693B681B88002B05D04D
:1037B000FB68202283F83E2000236DE0FB681B6835
:1037C0001B6803F02003202B3CD1FB69002B0CD19C
:1037D000FB681B685B689BB2C3F308039AB2BB69C2
:1037E0001A80BB690233BB611FE0FB689B68B3F5BD
:1037F000805F07D0FB689B68002B0AD1FB681B69C0
:10380000002B06D1FB681B685B68DAB2FB691A7093
:1038100008E0FB681B685B68DBB203F07F03DAB289
:10382000FB691A70FB690133FB613B681B8801333C
:103830009AB23B681A80FB68DB8D9BB2013B9AB25F
:10384000FB68DA85BB6AB3F1FF3F10D0FEF78EFA52
:1038500002467B69D31ABA6A9A4202D3BB6A002B2A
:1038600005D1FB68202283F83E20032314E0FB6887
:10387000DB8D9BB2002B85D1FB689A8DFB68DB8DBD
:103880009BB2D31A9AB23B681A80FB68202283F855
:103890003E20002300E0022318462037BD4680BDAD
:1038A00080B5BAB000AF78607B681B681B68C7F84A
:1038B000E4307B681B68DB68C7F8E0307B681B6816
:1038C0005B69C7F8DC300023C7F8D8300023C7F89D
:1038D000D430D7F8E43003F00F03C7F8D830D7F866
:1038E000D830002B0FD1D7F8E43003F02003002BA1
:1038F00009D0D7F8E03003F02003002B03D078681C
:1039000000F0D3FB56E2D7F8D830002B00F0DE8071
:10391000D7F8DC3003F00103002B06D1D7F8E030F4
:1039200003F49073002B00F0D180D7F8E43003F05B
:103930000103002B0BD0D7F8E03003F48073002B89
:1039400005D07B681B6C43F001027B681A64D7F8D2
:10395000E43003F00403002B0BD0D7F8DC3003F085
:103960000103002B05D07B681B6C43F002027B68CF
:103970001A64D7F8E43003F00203002B0BD0D7F819
:10398000DC3003F00103002B05D07B681B6C43F097
:1039900004027B681A64D7F8E43003F00803002BB4
:1039A00011D0D7F8E03003F02003002B05D1D7F871
:1039B000DC3003F00103002B05D07B681B6C43F067
:1039C00008027B681A647B681B6C002B00F0ED8199
:1039D000D7F8E43003F02003002B08D0D7F8E0300C
:1039E00003F02003002B02D0786800F05EFB7B68B8
:1039F0001B685B6903F04003402B0CBF01230023CD
:103A0000DBB2C7F8D4307B681B6C03F00803002BD3
:103A100003D1D7F8D430002B4FD0786800F066FA85
:103A20007B681B685B6903F04003402B41D17B68D6
:103A30001B681433C7F89C30D7F89C3053E8003F1C
:103A4000C7F89830D7F8983023F04003C7F8D03043
:103A50007B681B681433D7F8D020C7F8A820C7F8B4
:103A6000A430D7F8A410D7F8A82041E80023C7F85D
:103A7000A030D7F8A030002BD9D17B689B6B002BEE
:103A800013D07B689B6B7D4A1A657B689B6B1846DD
:103A9000FEF7F9FA0346002B16D07B689B6B1B6D73
:103AA0007A68926B104698470EE0786800F09AF9B1
:103AB0000AE0786800F096F906E0786800F092F97C
:103AC0007B6800221A6470E100BF6EE17B681B6BAB
:103AD000012B40F04A81D7F8E43003F01003002BAB
:103AE00000F04381D7F8E03003F01003002B00F022
:103AF0003C810023BB607B681B681B68BB607B68E4
:103B00001B685B68BB60BB687B681B685B6903F014
:103B10004003402B40F0B4807B689B6B1B685B6864
:103B2000A7F8BE30B7F8BE30002B00F040817B68AC
:103B30009B8DB7F8BE209A4280F039817B68B7F838
:103B4000BE20DA857B689B6BDB69B3F5807F00F074
:103B500088807B681B680C33C7F88830D7F88830BA
:103B600053E8003FC7F88430D7F8843023F48073DB
:103B7000C7F8B8307B681B680C33D7F8B820C7F893
:103B80009420C7F89030D7F89010D7F8942041E8E7
:103B90000023C7F88C30D7F88C30002BD9D17B6844
:103BA0001B6814337B677B6F53E8003F3B673B6FB9
:103BB00023F00103C7F8B4307B681B681433D7F8CF
:103BC000B420C7F88020FB67F96FD7F8802041E860
:103BD0000023BB67BB6F002BE1D17B681B681433EC
:103BE0003B663B6E53E8003FFB65FB6D23F04003F3
:103BF000C7F8B0307B681B681433D7F8B020FA667A
:103C0000BB66B96EFA6E41E800237B667B6E002BC3
:103C1000E3D17B68202283F83E207B6800221A6370
:103C20007B681B680C33FB64FB6C53E8003FBB6490
:103C3000BB6C23F01003C7F8AC307B681B680C33F7
:103C4000D7F8AC20BA657B65796DBA6D41E8002381
:103C50003B653B6D002BE3D17B689B6B1846FEF701
:103C6000A2F97B689A8D7B68DB8D9BB2D31A9BB2DD
:103C70001946786800F0C0F899E000BFB33F00082B
:103C80007B689A8D7B68DB8D9BB2D31AA7F8CE3008
:103C90007B68DB8D9BB2002B00F08B80B7F8CE30B9
:103CA000002B00F086807B681B680C33BB63BB6B0A
:103CB00053E8003F7B637B6B23F49073C7F8C830F5
:103CC0007B681B680C33D7F8C8207A643B64396C76
:103CD0007A6C41E80023FB63FB6B002BE3D17B682C
:103CE0001B6814337B627B6A53E8003F3B623B6A8C
:103CF00023F00103C7F8C4307B681B681433D7F87E
:103D0000C4203A63FB62F96A3A6B41E80023BB6264
:103D1000BB6A002BE3D17B68202283F83E207B68BE
:103D200000221A637B681B680C333B613B6953E8D4
:103D3000003FFB60FB6823F01003C7F8C0307B68CE
:103D40001B680C33D7F8C020FA61BB61B969FA6906
:103D500041E800237B617B69002BE3D1B7F8CE30CB
:103D60001946786800F048F823E0D7F8E43003F00B
:103D70008003002B09D0D7F8E03003F08003002B3C
:103D800003D0786800F029F914E0D7F8E43003F0A4
:103D90004003002B0ED0D7F8E03003F04003002B97
:103DA00008D0786800F069F904E000BF02E000BFC5
:103DB00000E000BFE837BD4680BD00BF80B483B0DF
:103DC00000AF786000BF0C37BD465DF8047B7047DC
:103DD00080B483B000AF786000BF0C37BD465DF89B
:103DE000047B704780B483B000AF786000BF0C37AD
:103DF000BD465DF8047B704780B483B000AF786047
:103E00000B467B8000BF0C37BD465DF8047B7047D6
:103E100080B590B000AFF860B9603B601346FB71AD
:103E200050E0BB6CB3F1FF3F4CD0BB6C002B07D014
:103E3000FDF79CFF02463B68D31ABA6C9A4241D206
:103E4000FB681B680C33BB62BB6A53E8003F7B62B4
:103E50007B6A23F4D073FB63FB681B680C33FA6B3B
:103E60007A633B63396B7A6B41E80023FB62FB6A40
:103E7000002BE5D1FB681B6814337B617B6953E839
:103E8000003F3B613B6923F00103BB63FB681B6898
:103E90001433BA6B3A62FB61F9693A6A41E800236C
:103EA000BB61BB69002BE5D1FB68202283F83D2074
:103EB000FB68202283F83E20FB68002283F83C2028
:103EC00003230FE0FB681B681A68BB681340BA68DD
:103ED0009A420CBF01230023DBB21A46FB799A42B7
:103EE0009FD0002318464037BD4680BD80B495B0B2
:103EF00000AF78607B681B680C337B637B6B53E897
:103F0000003F3B633B6B23F49073FB647B681B684F
:103F10000C33FA6C3A64FB63F96B3A6C41E80023AA
:103F2000BB63BB6B002BE5D17B681B6814333B6222
:103F30003B6A53E8003FFB61FB6923F00103BB646C
:103F40007B681B681433BA6CFA62BB62B96AFA6A9E
:103F500041E800237B627B6A002BE5D17B681B6B09
:103F6000012B19D17B681B680C33FB60FB6853E89D
:103F7000003FBB60BB6823F010037B647B681B6859
:103F80000C337A6CBA617B617969BA6941E80023C4
:103F90003B613B69002BE5D17B68202283F83E2002
:103FA0007B6800221A6300BF5437BD465DF8047B6E
:103FB000704780B584B000AF78607B689B6BFB6016
:103FC000FB680022DA85FB680022DA84F868FFF7D4
:103FD00009FF00BF1037BD4680BD80B485B000AF7B
:103FE00078607B6893F83D30DBB2212B3ED17B6853
:103FF0009B68B3F5805F14D17B681B69002B10D1DF
:104000007B681B6AFB60FB681B881A467B681B6821
:10401000C2F308025A607B681B6A9A1C7B681A62AA
:1040200008E07B681B6A591C7A6811621A787B6801
:104030001B685A607B68DB8C9BB2013B9BB27A6841
:104040001946D184002B0FD17B681B68DA687B6826
:104050001B6822F08002DA607B681B68DA687B6884
:104060001B6842F04002DA60002300E00223184699
:104070001437BD465DF8047B704780B582B000AF51
:1040800078607B681B68DA687B681B6822F04002F6
:10409000DA607B68202283F83D207868FFF78EFE87
:1040A000002318460837BD4680BD80B58CB000AFF0
:1040B00078607B6893F83E30DBB2222B40F0AB8017
:1040C0007B689B68B3F5805F17D17B681B69002B09
:1040D00013D10023FB627B689B6ABB627B681B6811
:1040E0005B689BB2C3F308039AB2BB6A1A807B6811
:1040F0009B6A9A1C7B689A6226E07B689B6AFB62DB
:104100000023BB627B689B68B3F5805F07D07B6848
:104110009B68002B0AD17B681B69002B06D17B684A
:104120001B685B68DAB2FB6A1A7008E07B681B6880
:104130005B68DBB203F07F03DAB2FB6A1A707B685C
:104140009B6A5A1C7B689A627B68DB8D9BB2013B41
:104150009BB27A681946D185002B5AD17B681B68BF
:10416000DA687B681B6822F02002DA607B681B68D3
:10417000DA687B681B6822F48072DA607B681B68EF
:104180005A697B681B6822F001025A617B68202211
:1041900083F83E207B681B6B012B35D17B680022A6
:1041A0001A637B681B680C337B617B6953E8003FB3
:1041B0003B613B6923F010037B627B681B680C3317
:1041C0007A6A3A62FB61F9693A6A41E80023BB61A5
:1041D000BB69002BE5D17B681B681B6803F01003EB
:1041E000102B0AD10023FB607B681B681B68FB60F7
:1041F0007B681B685B68FB60FB687B689B8D19466E
:104200007868FFF7F9FD02E07868FFF7E1FD002329
:1042100002E0002300E0022318463037BD4680BD8F
:104220002DE9B04FC0B000AFC7F8F400D7F8F430B4
:104230001B681B6923F44050D7F8F430D968D7F8CD
:10424000F4301A6840EA01031361D7F8F4309A6831
:10425000D7F8F4301B691A43D7F8F4305B691A4376
:10426000D7F8F430DB691343C7F8F830D7F8F430E7
:104270001B68DB6823F4164121F00C01D7F8F430F9
:104280001A68D7F8F8300B43D360D7F8F4301B68BE
:104290005B6923F44070D7F8F4309969D7F8F430AB
:1042A0001A6840EA01035361D7F8F4301A688F4B5B
:1042B0009A4205D0D7F8F4301A688D4B9A4204D14F
:1042C000FFF71EF9C7F8FC0003E0FFF705F9C7F890
:1042D000FC00D7F8F430DB69B3F5004F40F00C81F7
:1042E000D7F8FC300022C7F8E830C7F8EC20D7E94F
:1042F0003A4522462B469118B9655B41FB65D7E9E3
:104300001623214612EB0108294643EB01094FF021
:1043100000024FF000034FEAC90343EA58734FEA23
:10432000C80290469946234618EB0303C7F8E030CD
:104330002B4649EB0303C7F8E430D7F8F4305B6849
:104340000022C7F8D830C7F8DC20D7E936120B4670
:10435000DB183B65134642EB03037B65D7E9142367
:10436000D7E93801FCF798FC02460B46614BA3FBEA
:1043700002235B091C01D7F8FC300022C7F8D030BB
:10438000C7F8D420D7E9348942464B469118B9641E
:104390005B41FB64D7E91223414612EB010A49460F
:1043A00043EB010B4FF000024FF000034FEACB0349
:1043B00043EA5A734FEACA0292469B4643461AEBB7
:1043C0000303C7F8C8304B464BEB0303C7F8CC30A8
:1043D000D7F8F4305B680022C7F8C030C7F8C420B3
:1043E000D7E930120B46DB183B64134642EB03035C
:1043F0007B64D7E91023D7E93201FCF74DFC024674
:104400000B4611463B4BA3FB01235B09642202FBD5
:1044100003F3CB1ADB0003F13202364BA3FB02237A
:104420005B095B0003F4F8731C44D7F8FC300022EE
:10443000C7F8B830C7F8BC20D7E92E8942464B46AA
:104440009118B9635B41FB63D7E90E2341465118CC
:10445000396349464B417B634FF000024FF0000344
:10446000D7E90CAB5946CB00514643EA517351464C
:10447000CA0010461946034642469B18C7F8B0309A
:104480004B460A4642EB0303C7F8B430D7F8F43082
:104490005B680022C7F8A830C7F8AC20D7E92A1219
:1044A0000B46DB18BB62134642EB0303FB62D7E902
:1044B0000A23D7E92C01FCF7EFFB02460B460D4B14
:1044C000A3FB02135B09642101FB03F3D31ADB0096
:1044D0003233084AA2FB03235B0903F00702D7F833
:1044E000F4301B6822449A6005E100BF00100140CF
:1044F000001401401F85EB51D7F8FC300022C7F8AB
:10450000A030C7F8A420D7E9288942464B46911825
:1045100039625B417B62D7E908234146541849461A
:1045200043EB01054FF000024FF00003EB0043EABC
:104530005473E20014461D464346E318C7F898300A
:104540004B4645EB0303C7F89C30D7F8F4305B6863
:104550000022C7F89030C7F894204FF000024FF0C7
:104560000003D7E9244529468B00214643EA91738D
:1045700021468A00D7E92601FCF78EFB02460B464E
:10458000604BA3FB02235B091C01D7F8FC3000221F
:10459000C7F88830C7F88C20D7E9228942464B46B5
:1045A0009118B9615B41FB61D7E906234146511877
:1045B000396149464B417B614FF000024FF00003E7
:1045C000D7E904AB5946CB00514643EA51735146F3
:1045D000CA0010461946034642469B18C7F8803069
:1045E0004B460A4642EB0303C7F88430D7F8F43051
:1045F0005B680022BB67FA674FF000024FF00003D0
:10460000D7E91E8949468B00414643EA91734146EA
:104610008A00D7E92001FCF73FFB02460B46394BE5
:10462000A3FB02135B09642101FB03F3D31A1B01F3
:104630003233344AA2FB03235B0903F0F0031C442A
:10464000D7F8FC3000223B677A67D7E91C894246DD
:104650004B469118B9605B41FB60D7E902234146A4
:104660005118396049464B417B604FF000024FF0D2
:104670000003D7E900AB5946CB00514643EA5173DA
:104680005146CA0010461946034642469B18BB666F
:104690004B460A4642EB0303FB66D7F8F4305B68EF
:1046A00000223B667A664FF000024FF00003D7E924
:1046B000188949468B00414643EA917341468A0076
:1046C000D7E91A01FCF7E8FA02460B460D4BA3FBAB
:1046D00002135B09642101FB03F3D31A1B0132337C
:1046E000084AA2FB03235B0903F00F02D7F8F4305A
:1046F0001B6822449A6000BF07F58077BD46BDE87D
:10470000B08F00BF1F85EB51014B1868704700BF89
:104710000C00002070B50D4D0D4C641BA41000263C
:10472000A64209D10B4D0C4C04F092FC641BA41062
:104730000026A64205D170BD55F8043B98470136C6
:10474000EEE755F8043B98470136F2E70496000877
:1047500004960008049600080896000802440346E0
:10476000934200D1704703F8011BF9E72DE9FF4799
:1047700055EC104B002D0E4619462B46BBBF05F1DC
:1047800000431D4600232D230B700D9BDDF830A048
:10479000914623F02008BCBF22461446B8F1460FCC
:1047A00005D0B8F1450F00D10136022100E0032108
:1047B00003AB019302AB009345EC104B53463246DA
:1047C00001F0AEFDB8F1470F074602D119F0010F15
:1047D00022D0B8F1460F07EB060910D13B78302BF9
:1047E0000AD10022002320462946FCF775F918B9A2
:1047F000C6F10106CAF80060DAF8003099440022D8
:10480000002320462946FCF767F908B1CDF80C9043
:104810003022039B4B4507D3039B0E9ADB1B384684
:10482000136004B0BDE8F087591C03911A70F0E7DB
:10483000F7B503460029B8BF494203F8022BB4BFBD
:104840002D222B22092942702ADD0DF10704A446EE
:104850000A27A6460A4691FBF7F607FB16153035E0
:10486000632A04F1FF340EF8015C3146F1DC30318B
:10487000AEF1020504F8011C441C294661450AD327
:104880000DF10902A2EB0E02654588BF0022134418
:10489000181A03B0F0BD11F8012B04F8012FEDE751
:1048A000302330318370C170031DF1E72DE9F04FE3
:1048B0002DED028B8DB00C46DDF8608016461F464C
:1048C000054602F08BFED0F800A05046FBF788FCAE
:1048D00000230A9323680593D8F8003094F818B0A1
:1048E000073323F0070303F10802C8F80020D3E9D7
:1048F0000023C4E91223D4E9128929F00043079365
:10490000CDF8188008EE100A9F4BDDE906014FF044
:10491000FF32FCF713F988BBDDE906019A4B4FF033
:10492000FF32FCF7EDF848BB002200234046494621
:10493000FCF7DCF810B12D2384F84330934B9448F6
:10494000BBF1470F94BF9846804603232361059B24
:1049500023F0040222604FF00009009733460BAAAF
:104960002146284600F0D8F9013040F090804FF001
:10497000FF300DB0BDEC028BBDE8F08F42464B46D8
:1049800040464946FCF7DAF840B14B46002BBCBF25
:104990002D2384F843307F487F4BD1E763680BF0C9
:1049A000DF0206925A1C3FD106236360059B6168B3
:1049B00043F48062002303930AABCDE901B309AB52
:1049C00049EC108B009322600DF123032846FFF77A
:1049D000CDFE069B0999472B804608D1C81C02DBF7
:1049E0006368994241DDABF1020B5FFA8BFBBBF1CF
:1049F000650F20D801395A4604F150000991FFF79C
:104A000017FF0A9A1318012A8146236102DC2268E3
:104A1000D20701D5013323619DF82330002B9CD0B0
:104A20002D2384F8433098E7069A472ABED1002BFD
:104A3000BCD10123B9E7BBF1660F18D10029636827
:104A40000BDD216113B92268D00702D501330B4475
:104A50002361A1654FF00009DEE713B92268D20790
:104A600001D50233F4E70123F2E74FF0670B0A9B0D
:104A7000994205DB23682161D807EAD54B1CE7E79B
:104A80000029D4BFC1F1020201221344E0E72368E8
:104A90005A0507D42369424631462846B8470130B3
:104AA0002CD164E7BBF1650F40F2E080D4E912013C
:104AB00000220023FCF710F8002834D0374A0123E5
:104AC00031462846B84701303FF451AFDDE90923AC
:104AD0009A4202DB2368D80710D518EE103A5246E6
:104AE00031462846B84701303FF441AF4FF0000847
:104AF00004F11A090A9B013B434509DC23689B0723
:104B000000F10581E0680B9B9842B8BF184630E77A
:104B100001234A4631462846B84701303FF427AFC3
:104B200008F10108E6E7099B002B39DC1B4A012349
:104B300031462846B84701303FF419AFDDE9092373
:104B4000134302D12368D907D8D518EE103A52463C
:104B500031462846B84701303FF409AF4FF000090D
:104B600004F11A0A099B5B424B4501DC0A9B92E760
:104B70000123524631462846B84701303FF4F7AE8C
:104B800009F10109EEE700BFFFFFEF7F5891000830
:104B90005C91000864910008609100086891000829
:104BA0000A9AA36D9A42A8BF1A46002A914637DC9A
:104BB0004FF0000B29EAE97904F11A02A36D05937D
:104BC000A3EB09035B4533DCDDE909239A423BDBB8
:104BD0002368DA0738D40A9B059A09999A1AA3EB35
:104BE00001099145A8BF9146B9F1000F35DC4FF09E
:104BF000000829EAE97904F11A0ADDE909239B1A78
:104C0000A3EB090343457FF779AF012352463146B1
:104C10002846B84701303FF4AAAE08F10108ECE796
:104C20001346314642462846B8470130C0D19EE679
:104C30000123314628460592B84701303FF497AE2C
:104C4000059A0BF1010BB9E718EE103A52463146BE
:104C50002846B8470130BED189E6059A4B46424402
:104C600031462846B8470130C1D180E60A9A012A68
:104C700001DCDB0738D50123424631462846B847D8
:104C800001303FF474AE18EE103A524631462846D1
:104C9000B84701303FF46BAED4E912010022002383
:104CA000FBF71AFFD8B90A9B08F10102013B314614
:104CB0002846B84701300ED159E601235246314605
:104CC0002846B84701303FF452AE08F101080A9B6C
:104CD000013B4345F1DC4B4604F15002DCE64FF06A
:104CE000000804F11A0AF2E701234246DFE7012334
:104CF0004A4631462846B84701303FF438AE08F1FD
:104D00000108E3680B995B1A4345F0DCFAE64FF0C3
:104D1000000804F11909F4E72DE9F0471646994611
:104D20008A680B69DDF820809342B8BF1346336070
:104D300091F8432007460C460AB1013333602368DB
:104D4000990642BF336802333360256815F00605C3
:104D500006D104F1190AE36832689B1AAB4226DCDB
:104D600094F84320131E226818BF012392062BD407
:104D700004F1430249463846C04701301ED023683B
:104D8000E568326803F00603042B08BFAD1AA36878
:104D900022690CBF25EAE57500259342C4BF9B1A22
:104DA000ED1800261A34B5421AD1002008E001237C
:104DB000524649463846C047013003D14FF0FF30D4
:104DC000BDE8F0870135C6E7E1185A1C302081F8AC
:104DD0004300224494F8451082F843100233C7E799
:104DE0000123224649463846C0470130E6D0013605
:104DF000D9E700002DE9FF470F7E0C9D782F9146E3
:104E000080460C469A4601F1430207D8622F0AD821
:104E1000002F00F0D880582F00F0A38004F1420545
:104E200084F842703AE0A7F16303152BF6D801A18C
:104E300051F823F08D4E0008A14E00081D4E0008C9
:104E40001D4E00081D4E00081D4E0008A14E000812
:104E50001D4E00081D4E00081D4E00081D4E000886
:104E6000AD4F0008D14E00088F4F00081D4E0008BE
:104E70001D4E0008CF4F00081D4E0008D14E0008FF
:104E80001D4E00081D4E0008974F00082B681A1D84
:104E90001B682A6004F1420584F842300123A3E034
:104EA00020682968060601F104030AD50E682B6004
:104EB000002E03DA2D23764284F843305E480A231D
:104EC00019E00E682B6010F0400F18BF36B2EFE704
:104ED0002B682068191D2960010601D51E6802E0B3
:104EE0004606FBD51E8854486F2F0CBF08230A23A3
:104EF000002184F843106568A560002DA2BF2168D9
:104F000021F0040121600EB9002D4DD01546B6FBED
:104F1000F3F103FB1167C75D05F8017D3746BB421E
:104F20000E46F4D9082B0BD12368DE0708D5236978
:104F300061689942DEBF302305F8013C05F1FF3579
:104F4000521B2261CDF800A04B4603AA21464046E1
:104F5000FFF7E2FE01304CD14FF0FF3004B0BDE866
:104F6000F087354881F845702968236851F8046B4B
:104F700029601D0614D5DF0744BF43F020032360DA
:104F80001EB9236823F0200323601023B0E72368B1
:104F900043F0200323607823284884F84530E3E772
:104FA000590648BFB6B2E6E71546BBE72B68266848
:104FB0006169181D286035061B6801D5196002E07B
:104FC0007006FBD51980002323611546BAE72B68CC
:104FD0001A1D2A601D68626800212846FBF708F93F
:104FE00008B1401B606063682361002384F843308C
:104FF000A8E723692A4649464046D0470130ABD04E
:1050000023689B0713D4E068039B9842B8BF1846F7
:10501000A4E70123324649464046D04701309BD0A1
:105020000135E36803995B1AAB42F2DCEBE700253C
:1050300004F11906F5E700BF6A9100087B910008AA
:105040002DE9F04F87B0174603938B685A1EB2F5CF
:10505000AE7F83BF6FF4AE755B190293002386BFEA
:1050600040F25D138B6002930B688B46002543F47E
:10507000F0634BF81C3BCDE9045580460C465E4678
:10508000AA46A9460195A26852B13B681B784E2BEF
:1050900064D8402B3CD8A3F12B01C8B20E283AD9D2
:1050A000B9F1000F03D0236823F4807323600AF161
:1050B000FF3ABAF1010F00F213815E4500F205815B
:1050C0000125284607B0BDE8F08FA3F161020D2A43
:1050D000E6D801A151F822F017520008A1500008AB
:1050E000A1500008A1500008775200084F52000854
:1050F000A1500008A150000825520008A150000846
:10510000A1500008A1500008A1500008DD5100087E
:10511000A3F14102DBE70E29C2D801A050F821F02B
:10512000CF510008A1500008CF5100086352000879
:10513000A15000087D510008B9510008B95100087C
:10514000B9510008B9510008B9510008B951000817
:10515000B9510008B9510008B95100086E2B09D89F
:10516000602BB2D8542B77D0592B99D1072D97D1DA
:10517000082529E0742B6FD0792BF6E72168C80544
:105180001AD5029B21F08001216009F101091BB1B0
:10519000013B01320293A260A368013BA360236933
:1051A000013323617B68013B002B7B6040F38480EB
:1051B0003B6801333B6066E71AEB050F7FF470AF85
:1051C000226822F4C072226006F8013BE4E72268FC
:1051D00010067FF565AF22F08002F4E7BAF1000F08
:1051E0000ED1B9F1000F0ED1226802F4E061B1F5E1
:1051F000E06F08D122F4F06222604FF0010AE3E789
:10520000BAF1020F55D0012D02D0042D7FF448AF22
:105210000135EDB2D8E7BAF1010F7FF441AF4FF09D
:10522000020AD1E77DB9B9F1000F7FF43CAF2268E3
:1052300002F4E061B1F5E06F7FF439AF22F4F0627F
:1052400022600125C0E7032DE2D0052DDEE7022D07
:105250007FF426AF0325B7E7062D7FF421AF07259E
:10526000B2E7226891057FF51BAF22F4207222601D
:10527000CDF80490A8E7226802F4A061B1F5806F30
:1052800006D050057FF50CAFB9F1000F3FF40FAF1A
:10529000910558BF019922F4F06258BFA9EB0101B2
:1052A00042F4C07258BFCDE9041622604FF00009E5
:1052B0008AE74FF0030A87E7D4F880313946404641
:1052C000984700283FF4DFAEEAE6D4F87C3116F8C0
:1052D000011D3A46404698472369013B2361ECE6AD
:1052E0006B1E062B25D8022D36D85E457FF6E8AE1C
:1052F000D4F87C3116F8011D3A4640469847236998
:10530000013B2361F1E70298D4F87C3110F8011DCC
:1053100002903A46404698472369013B23610AF1CF
:10532000FF3A5FFA8AFABAF1020FECD1033DEDB20F
:10533000761B2368DA052FD55B0510D55E457FF611
:10534000BFAED4F87C3116F8011D3A464046984766
:105350002369013B2361F1E7AA460296DFE716F8CD
:10536000011C2369652903F1FF3306F1FF35236131
:105370000CD045290AD0D4F87C313A4640469847AB
:10538000236916F8021C013BB51E2361D4F87C3159
:105390003A46404698472E46256815F0100559D1E3
:1053A0003570236803F4C063B3F5806F1BD1019B94
:1053B0004B45A3EB090223D100225946404600F099
:1053C00099FE2268039B12F0020F57EC106B1B68CA
:1053D00021D003991A1D0A601B68C3E90067E368BE
:1053E0000133E3606DE6049B002BE5D005990A23A9
:1053F0002A460131404600F005FF049B059EC21A73
:1054000004F26F139E4228BF04F5B7761249304666
:1054100000F02CF8D0E7039912F0040F03F1040216
:105420000A60D9D1D3F8008010EE102A10EE100ACD
:105430003B463946FBF782FB28B1084800F010F8DC
:1054400088ED000ACBE730463946FBF7D5FBC8F8B4
:105450000000C4E7002534E68C9100089895000808
:105460009FED010A704700BF0000C07F0EB400B579
:105470009CB01DAB029006906FF000410948079167
:105480000491094953F8042B05910068019302A97E
:1054900002F0E4FE029B00221A701CB05DF804EBDF
:1054A00003B070470C0000200802FFFF70B50446EF
:1054B0000D4645EC104B164602F02EFC51EC100B3D
:1054C0007EB1C5F30A53C3F16B03002B09DD1B0545
:1054D00003F17F55002405F5401522462B46FBF7C6
:1054E00093F870BD000000002DE9F04F2DED028B08
:1054F0009DB01F4600231893A24B13921B6805937F
:10550000044618468846FAF76BFE4FF0000A054637
:105510004FF0000BCDF85C80179B1A782B2A4ED0E9
:105520003BD80D2A34D8082A34D8002A3ED000238C
:105530000A93179E3378302B40F0B080737803F0D5
:10554000DF03582B68D10A9B019318AB0297009395
:105550008D4A19AB17A9204601F038FD10F0070756
:10556000054605D0062F2CD10136002317960A9345
:10557000139B002B40F090850A9BEBB152460BF138
:10558000004343EC102B1DB0BDEC028BBDE8F08F47
:10559000202ACCD101331793BEE72D2AC7D101228F
:1055A0000A925A1C17925B78002BC2D1139BCDF83C
:1055B0005C80002B40F06E8552465B46E1E700229E
:1055C000EEE7189A3AB135211AA802F0B0FC189902
:1055D000204602F06FF8013F042F06D8DFE807F0FD
:1055E0000A0314170A00DDE91AAB2807C0D54BF0EF
:1055F000004BBDE7DDE91AA3199A23F4801302F2E8
:10560000334243EA025BF0E7DFF880B1EDE76FF089
:10561000004B4FF0FF3AE8E7179B5A1C17925B7854
:10562000302BF9D0002BA3D001234FF000090493B5
:10563000179B0893CDF81C904F460A2217980678BE
:10564000A6F13003D9B209292AD905992A4602F0D0
:105650001FFF98B3002032463D4605900346652A59
:1056600001D0452A18D11DB9049A02439ED00025C5
:10567000DDF85C8008F10102179298F801202B2ACE
:1056800075D02D2A7BD04FF0000CA2F130010929F2
:1056900040F28280CDF85C8000269DE00023C4E7C4
:1056A000082FD8BF079900F10100DABF02FB0133D0
:1056B000079302FB093901371790BFE7179B5A1967
:1056C00017925A5D002F37D005903D46A2F1300366
:1056D000092B12D90123C2E7179B5A1C17925A783B
:1056E0000130302AF8D0A2F13103082B00F2D9841E
:1056F000179B0590002008930546303A00F10103FE
:1057000014D00599194405912B4600EB050E0A218A
:10571000734513D12B18082B05F1010505441CDC3A
:1057200007990A2303FB012307930023179A511CAF
:10573000179152781846C9E73846D2E7082B04DC9F
:10574000079E4E4307960133E2E703F1010CBCF1DB
:10575000100FD8BF01FB09F9F5E7102DDCBF0A23B4
:1057600003FB0929E1E70023059301237CE74FF0C0
:10577000000C08F10202179298F8022085E74FF01A
:10578000010CF6E7E0930008949100080000F07F18
:10579000179A511C17915278302AF9D0A2F1310191
:1057A00008293FF679AFA2F1300E179A0692179AA0
:1057B000511C17915278A2F13006092E37D9069E56
:1057C000891B082944F61F6602DC7645A8BF764689
:1057D000BCF1000F00D07642002D4DD10499014359
:1057E0007FF4C6AE002B7FF4E1AE692A27D024DC1B
:1057F000492A24D04E2A7FF4D9AE9F4917A801F038
:105800003DFE00283FF4D2AE179B1B78282B2DD1EC
:105810009A491AAA17A801F045FE052826D11B9B14
:10582000DDF868A043F0FF4B4BF4E00BA0E60A2143
:1058300001FB0E2EAEF1300EB9E76E2ADBE7904980
:1058400017A801F01BFE00283FF4B0AE179B8D494E
:10585000013B17A8179301F011FE10B9179B0133F4
:105860001793DFF830B24FF0000A81E6864802F065
:10587000F7FD5BEC10AB7BE6059B0798F31A002F56
:1058800008BF2F46102D0693A846A8BF4FF010085A
:10589000FAF740FE092D82468B4613DD7B4B03EB66
:1058A000C80353E91223FAF7AFFE824648468B46F7
:1058B000FAF730FE02460B4650465946FAF7EEFC20
:1058C00082468B460F2D38DC069B002B3FF450AEF2
:1058D00024DD162B0BDC6D4901EBC301D1E900017E
:1058E00052465B46FAF790FE82468B4640E6069AA1
:1058F000C5F12503934220DB644CC5F10F0504EB91
:10590000C50152465B46D1E90001FAF77DFE069BD0
:105910005D1B04EBC504D4E90023E3E7069B1633C3
:105920000BDB059B9E1B594B03EBC606D6E90023F8
:1059300050465946FAF792FFD6E7069BA5EB0808B2
:105940009844B8F1000F74DD18F00F030AD04F49E6
:1059500001EBC30152465B46D1E90001FAF754FE60
:1059600082468B4638F00F084FD0B8F59A7F22DD7B
:1059700000252E46079505952223DFF818B12360F0
:105980004FF0000A079B002B3FF4F2AD1899204618
:1059900001F090FE0599204601F08CFE314620462C
:1059A00001F088FE0799204601F084FE2946204632
:1059B00001F080FEDCE5364B049300234FEA281803
:1059C000504659469946B8F1010F21DC0BB1824689
:1059D0008B462F4BABF1547B03EBC90952465B4618
:1059E000D9E90001FAF710FE2A4B0A460B402A4972
:1059F0008B428246BCD8A1F580118B4286BFDFF86E
:105A00009CB04FF0FF3A02F1547B0023049384E0F2
:105A100018F0010F05D0049BD3E90023FAF7F4FD39
:105A20000123049A083209F101094FEA6808049237
:105A3000C9E7EAD0C8F1000818F00F020AD0134BEA
:105A400003EBC20350465946D3E90023FAF706FF99
:105A500082468B465FEA2818D7D0B8F11F0F1FDDAA
:105A600000252E460795059522234FF0000A4FF09A
:105A7000000B236086E700BF65910008A89100082D
:105A80005D910008EC920008989500087894000851
:105A9000509400080000F07F0000A07CFFFFEF7F23
:105AA00018F0100318BF6A23DFF8AC930493504634
:105AB0005946002318F0010F04D0D9E90023FAF762
:105AC000A3FD01235FEA680809F10809F2D10BB1CF
:105AD00082468B46049BC3B1CBF30A52C2F16B03DF
